:020000040800F2
:1080000000000120C5820008CD820008D18200084E
:1080100045830008498300089183000800000000A0
:10802000000000000000000000000000D9830008EC
:10803000DD83000800000000E18300085D8B00087C
:10804000F5830008F5830008F5830008F583000830
:10805000F5830008F5830008F5830008F583000820
:10806000F5830008F5830008F5830008F583000810
:10807000F5830008F5830008F5830008F583000800
:10808000F5830008F5830008F58300080000000070
:10809000000000000000000000000000F583000860
:1080A000F5830008F5830008F5830008F5830008D0
:1080B000F5830008F5830008F5830008F5830008C0
:1080C000F5830008F5830008F5830008F5830008B0
:1080D000F5830008F5830008F58300080000000020
:1080E000F5830008F5830008F58300080000000010
:1080F000000000000000000000000000F583000800
:1081000000000000F5830008F5830008F5830008EF
:10811000000000000000000000000000000000005F
:10812000F5830008F5830008F5830008F58300084F
:10813000F5830008000000000000000000000000BF
:10814000000000000000000000000000F5830008AF
:10815000F5830008F5830008F5830008F58300081F
:10816000F5830008F583000800000000000000000F
:1081700000000000000000000000000000000000FF
:1081800000000000F583000800000000000000006F
:10819000F583000800B583B000F0BCF9384B394ACC
:1081A0001360394A136039490CE00A684B6801F1E1
:1081B0000C04886803E011681960043304329842A3
:1081C000F9D82146324B9942EFD32E4B1A68314BE6
:1081D0009A4204D12C4B1A682F4B9A4200D0FEE7EA
:1081E000274B2E4A13602E4A13602E4B0AE0194685
:1081F00051F8082B5B6802E00020106004329A42BC
:10820000FAD30B46284A9342F1D3244B1B6813B987
:10821000234B1B6803B1FEE700F088F9694601A80B
:1082200000F022F9214C224B1C1BA410002504E075
:108230001E4B53F8253098470135AC42F8DC1D4CF5
:108240001D4B1C1BA410002504E01A4B53F82530CD
:1082500098470135AC42F8DC0099019800F02EFEF9
:108260000546164C164B1C1BA41004E0013C134B96
:1082700053F824309847002CF8DC284600F0D0F85A
:10828000BABADECA0000002074000020F88300089B
:108290001084000878563412325476987800002002
:1082A00018010020108400082084000820840008A1
:1082B000208400082084000820840008208400080E
:1082C0002084000808B5FFF765FF00BF00BEFEE789
:1082D0001EF0040F0CBFEFF30880EFF30980714626
:1082E000414A10472DE9F04182B004468846134BBD
:1082F0005E6B9F6B9D6A1B6B13F0020F0DD00F4BD3
:10830000DB6A002B09DA4BF6AB6100F08BF920B188
:108310004FF00042094BDA620CE0094800F0ACF87B
:10832000CDF800803B4632462946204600F002F94F
:1083300000BEFEE702B0BDE8F08100BF00ED00E046
:108340003499000800BEFEE71EF0040F0CBFEFF3E7
:108350000880EFF309807146244A10472DE9F04167
:1083600082B004468846084B5E6B9F6B9D6A074847
:1083700000F082F8CDF800803B4632462946204680
:1083800000F0D8F800BEFEE700ED00E044990008D8
:108390001EF0040F0CBFEFF30880EFF30980714665
:1083A000134A10472DE9F04182B004468846084B35
:1083B0005E6B9F6B9D6A074800F05EF8CDF8008009
:1083C0003B4632462946204600F0B4F800BEFEE7A0
:1083D00000ED00E05099000800BEFEE700BEFEE799
:1083E00000BEFEE770470000E58200085D830008DC
:0883F000A583000800BEFEE7B2
:1083F800AC9900080000002078000020AC99000823
:108408000000001000000010780000201C0100206F
:0884180000000010000000103C
:10842000FEE700BF08B50D4B1B6813B90C4A0B4B98
:108430001A600A4B1A68C31C23F00303134409494A
:108440008B4206D900F058FD0C2303604FF0FF303B
:1084500008BD02490B60104608BD00BF7C0000202B
:108460001C01002000FC002001230360014B0B6075
:10847000704700BF040000200FB400B583B004AB08
:1084800053F8042B01938021064800F067FD002873
:1084900003DD0146034800F039F803B05DF804EB52
:1084A00004B07047840000202DE9F04385B00446F5
:1084B0000F46435613BB042528462146ABBE04464F
:1084C0001FE03546102E28BF1025002306E014F9C2
:1084D000011B04AA1A4402F8101C0133AB42F6D364
:1084E00004AA1344002203F8102CE9464FF00408B4
:1084F00040464946ABBE8046761B00E00E46002E45
:10850000DFD1384605B0BDE8F08300BF08B5FFF7FE
:10851000CBFF08BD08B500F095F8024B024A9A60FF
:1085200008BD00BF00ED00E00080000808B500F0C5
:10853000A9F808BDF8B504460D4617461E4626485C
:10854000FFF79AFF21682548FFF796FF61682448E6
:10855000FFF792FFA1682348FFF78EFFE1682248EA
:10856000FFF78AFF21692148FFF786FF61692048EC
:10857000FFF782FFA1691F48FFF77EFFE1691E48F0
:10858000FFF77AFF1D48FFF777FF29461C48FFF7E2
:1085900073FF1C4CE16A1C48FFF76EFF216B1B4800
:1085A000FFF76AFFE16B1A48FFF766FF15F0800FCF
:1085B00003D039461748FFF75FFF15F4004F03D08B
:1085C00031461548FFF758FF1448FFF755FF069945
:1085D0001348FFF751FFF8BD1898000828980008C5
:1085E00038980008489800085898000868980008CB
:1085F000789800088898000898980008A8980008BB
:10860000B498000800ED00E0C4980008D498000871
:10861000E4980008F49800080499000814990008E8
:108620001C99000883691A888A4207D10268033AB4
:10863000012A05D80233836101207047002070476A
:10864000002070470C4B1A6842F001021A600021AA
:1086500099601A6822F0847222F480321A60074A04
:108660005A601A6822F480221A60D9604FF00062C2
:10867000034B9A60704700BF00380240103000245E
:1086800000ED00E0224B9B6803F00C03042B07D0A5
:10869000082B09D0002B2DD11E4A1F4B1A602CE04D
:1086A0001E4A1D4B1A6028E0194B5A685B6803F09C
:1086B0003F0312F4800F09D0184AB2FBF3F2144BB7
:1086C0005B68C3F3881303FB02F208E0114AB2FBB4
:1086D000F3F30F4A5168C1F3881101FB03F20C4B0D
:1086E0005B68C3F3014301335B00B2FBF3F30A4A57
:1086F000136002E0074A084B1A60054B9B68C3F3FE
:108700000313074AD15C044A1368CB4013607047D7
:10871000003802400024F4000C00002040787D0165
:1087200060990008027812F0800F40F03181438890
:108730001B0A012B40F02E818388190A022940F080
:108740002B8170B4C1880C0A032C40F02781A1F260
:108750000131052900F22481DFE811F00600340020
:1087600062009000BE00EC008F490C68DBB25E0036
:10877000032505FA06F324EA0303C2F3411202FAC1
:1087800006F633430B604B6806790124B44023EAB4
:1087900004030278C2F3C002B24013434B60CB68BB
:1087A00002795400A54023EA0503027802F003028F
:1087B000A2401343CB6083780279520093408B60D0
:1087C0000020EEE079490C68DBB25E00032505FA73
:1087D00006F324EA0303C2F3411202FA06F6334316
:1087E0000B604B6806790124B44023EA0403027845
:1087F000C2F3C002B24013434B60CB68027954000D
:10880000A54023EA0503027802F00302A2401343C5
:10881000CB6083780279520093408B600020C0E0E7
:1088200063490C68DBB25E00032505FA06F324EA0F
:108830000303C2F3411202FA06F633430B604B689E
:1088400006790124B44023EA04030278C2F3C0028B
:10885000B24013434B60CB6802795400A54023EA31
:108860000503027802F00302A2401343CB60837831
:108870000279520093408B60002092E04D490C68D1
:10888000DBB25E00032505FA06F324EA0303C2F314
:10889000411202FA06F633430B604B680679012455
:1088A000B44023EA04030278C2F3C002B240134387
:1088B0004B60CB6802795400A54023EA0503027897
:1088C00002F00302A2401343CB6083780279520086
:1088D00093408B60002064E037490C68DBB25E0097
:1088E000032505FA06F324EA0303C2F3411202FA50
:1088F00006F633430B604B6806790124B44023EA43
:1089000004030278C2F3C002B24013434B60CB6849
:1089100002795400A54023EA0503027802F003021D
:10892000A2401343CB6083780279520093408B605E
:10893000002036E021490D68DBB25B00032404FA15
:1089400003F625EA0605C2F3411202FA03F32B43AC
:108950000B604B6806790125B54023EA05030278D0
:10896000C2F3C002B24013434B60CB68027955009A
:10897000AC4023EA0403027802F00302AA40134346
:10898000CB6083780279520093408B60002008E02E
:10899000012070470220704703207047042000E048
:1089A000002070BC704700BF00000240000402407D
:1089B00000080240000C024000100240001C02406F
:1089C000010A032926D130B40025002D08BF042B4D
:1089D00022D1A0F20130052820D8DFE800F00307FB
:1089E0000B0F13170F4B9A61002018E00E4B9A6182
:1089F000002014E00D4B9A61002010E00C4B9A61AE
:108A000000200CE00B4B9A61002008E00A4B9A61B1
:108A1000002004E004207047052000E0002030BC66
:108A2000704700BF000002400004024000080240FE
:108A3000000C024000100240001C024030B49DF8BF
:108A40000810713803284FD8DFE800F00215283BE2
:108A50000025002D08BF082B48D1294B1B6B01298D
:108A600003D123EA02031A4301E023EA0202244B62
:108A70001A63002041E00025002D08BF092B37D1E3
:108A80001F4B5B6B012903D123EA02031A4301E068
:108A900023EA02021A4B5A6300202EE00025002D23
:108AA00008BF0A2B26D1164B1B6C012903D123EAE0
:108AB00002031A4301E023EA0202114B1A64002068
:108AC0001BE00025002D08BF0B2B15D10C4B5B6C58
:108AD000012903D123EA02031A4301E023EA020237
:108AE000074B5A64002008E00B2006E00C2004E04D
:108AF000002002E0002000E0002030BC704700BFF2
:108B000000380240034A136843F006031360002054
:108B1000704700BF10E000E04FF47A5303FB00F011
:108B20000138B0F1807F03D2024B586000207047BB
:108B30000320704710E000E0024A136843F001038D
:108B40001360704710E000E018B1034A1060002085
:108B500070470420704700BF0401002008B5024B95
:108B60001B6803B1984708BD0401002030B583B0ED
:108B7000002425463AE021461F4B03EBC4039B88A3
:108B80001A0A032A2FD11C4A02EBC402D288402AB7
:108B900002D0412A0BD014E0B3F5407F03D121234A
:108BA0008DF800300DE022238DF8003009E0B3F598
:108BB000407F03D129238DF8003002E02A238DF86D
:108BC00000300D4B03EBC1025288ADF8042033F89E
:108BD0003130ADF806304FF48173ADF8023068469D
:108BE000FFF7A0FD00E004250134E4B2002CC2D060
:108BF000284603B030BD00BF7099000808B5A34BEC
:108C000003EBC0031B798B4240F0A3809F4B03EB27
:108C1000C0035B88A3F500730F2B00F23481DFE8FB
:108C200003F008111A232C353E475059626B747DAE
:108C3000868F4FF480320423944931F83000FFF7D7
:108C4000BFFE20E14FF400320423904931F8300098
:108C5000FFF7B6FE17E14FF4802204238B4931F869
:108C60003000FFF7ADFE0EE14FF4002204238749E8
:108C700031F83000FFF7A4FE05E14FF48012042321
:108C8000824931F83000FFF79BFEFCE04FF4001200
:108C900004237E4931F83000FFF792FEF3E04FF4F1
:108CA00080020423794931F83000FFF789FEEAE0B9
:108CB0004FF400020423754931F83000FFF780FEBD
:108CC000E1E04FF080720423704931F83000FFF783
:108CD00077FED8E04FF0007204236C4931F8300081
:108CE000FFF76EFECFE04FF080620423674931F852
:108CF0003000FFF765FEC6E04FF0006204236349D1
:108D000031F83000FFF75CFEBDE04FF080520423E5
:108D10005E4931F83000FFF753FEB4E04FF00052E7
:108D200004235A4931F83000FFF74AFEABE04FF018
:108D300080420423554931F83000FFF741FEA2E09C
:108D40004FF000420423514931F83000FFF738FE5C
:108D500099E04E4B03EBC0035B88A3F500730F2B28
:108D600000F29180DFE803F0081018202830384026
:108D700048515A636C757E8701220423434931F8B8
:108D80003000FFF71DFE7EE0022204233F4931F848
:108D90003000FFF715FE76E0042204233B4931F84A
:108DA0003000FFF70DFE6EE008220423374931F84A
:108DB0003000FFF705FE66E010220423334931F846
:108DC0003000FFF7FDFD5EE0202204232F4931F83B
:108DD0003000FFF7F5FD56E0402204232B4931F81F
:108DE0003000FFF7EDFD4EE080220423274931F8E3
:108DF0003000FFF7E5FD46E04FF48072042323497D
:108E000031F83000FFF7DCFD3DE04FF40072042341
:108E10001E4931F83000FFF7D3FD34E04FF4806293
:108E200004231A4931F83000FFF7CAFD2BE04FF454
:108E300000620423154931F83000FFF7C1FD22E03C
:108E40004FF480520423114931F83000FFF7B8FD88
:108E500019E04FF4005204230C4931F83000FFF7B9
:108E6000AFFD10E04FF480420423084931F8300090
:108E7000FFF7A6FD07E04FF400420423034931F851
:108E80003000FFF79DFD002008BD00BF709900086D
:108E900008B5094B1B6813F0010F04D100210846E7
:108EA000FFF7ACFE03E001210020FFF7A7FE024A16
:108EB00013680133136008BD0801002000B583B0BA
:108EC00001240094042208237120FFF7B7FDFFF767
:108ED00019FEFFF74BFE21460020FFF78FFE4FF4EF
:108EE000FA70FFF719FE0348FFF72EFEFFF724FE86
:108EF000FEE700BF918E0008014B1868704700BF65
:108F00007000002030B5141E05469BB0184604DAE8
:108F10008B232B604FF0FF301DE04FF40273ADF850
:108F20000C3014BF04F1FF332346029305934FF630
:108F3000FF7300910491ADF80E3002461E9B694606
:108F4000284600F073F8431CBCBF8B232B6014B180
:108F5000009B00221A701BB030BD000007B50093C3
:108F600013460A46014603480068FFF7CBFF03B0EB
:108F70005DF804FB700000202DE9F0478E689E42EA
:108F800082460C46914698463ED88A8912F4906FE4
:108F90003AD0256809696F1A6569022305EB450512
:108FA00095FBF3F57B1C43449D4238BF1D4653059A
:108FB0000FD5294600F090FB064698B13A46216944
:108FC00000F016FBA38923F4906343F08003A38190
:108FD00013E02A4600F0DEFB064670B921695046D0
:108FE00000F02CFB0C23CAF80030A38943F04003A7
:108FF000A3814FF0FF30BDE8F087266165613E44F4
:10900000ED1B2660A5604646464528BF46463246CB
:109010004946206800F0F7FAA3689B1BA360236809
:109020001E4426600020BDE8F08700002DE9F04FC7
:109030009DB0804603938B891C060D4616460DD5C0
:109040000B695BB9402100F047FB2860286118B923
:109050000C23C8F80030CDE040236B610023099356
:1090600020238DF82930DFF89CB130238DF82A3089
:1090700037463C4614F8013B1BB9B7EB060910D044
:1090800003E0252BF9D02746F3E74B463246294625
:109090004046FFF771FF013000F0A780099B4B4469
:1090A00009933B78002B00F0A08000234FF0FF32A3
:1090B00004930793059206938DF853301A93012673
:1090C000052221784E4800F043FA671C049B38B112
:1090D0004B4A801A06FA00F0184304903C46EFE72A
:1090E000D90644BF20228DF853201A0744BF2B22F3
:1090F0008DF8532022782A2A03D0079A00210A20CB
:109100000BE0039A111D12680391002A10DA5242F3
:1091100043F00200079204900BE0274601343B78AD
:10912000303B092B03D800FB02320121F5E701B1E6
:1091300007923B782E2B1ED17B782A2B0AD1039BDA
:109140001A1D1B680392002BB8BF4FF0FF33023784
:10915000059310E000230593781C19460A2407465E
:1091600001303A78303A092A03D804FB012101235F
:10917000F5E703B1059103223978224800F0E8F9B8
:1091800040B14023CBEB000003FA00F0049B1843EE
:109190000490013739781C488DF8281006227E1C6F
:1091A00000F0D6F988B1194B33B9039B073323F08C
:1091B00007030833039314E003AB00932A46144BD0
:1091C00004A94046AFF3008007E003AB00932A46B2
:1091D0000F4B04A9404600F093F8B0F1FF3F8246E0
:1091E00003D0099B5344099342E7AB895B0601D442
:1091F000099801E04FF0FF301DB0BDE8F08F00BFCF
:10920000789900087E990008829900080000000003
:10921000798F00082DE9F04791461F460A698B684F
:10922000DDF820809342B8BF1346C9F8003091F8AA
:10923000432006460C4612B10133C9F800302368BA
:10924000990642BFD9F800300233C9F800302568CA
:1092500015F0060510D104F1190A07E00123524662
:1092600039463046C04701301AD00135E368D9F895
:1092700000209B1A9D42F1DB94F8433022680033B2
:1092800018BF012392060FD5E1185A1C302081F82F
:109290004300224494F8451082F84310023303E05F
:1092A0004FF0FF30BDE8F08704F143023946304605
:1092B000C0470130F4D02268D9F80050E36802F0CA
:1092C0000602042A08BF5D1B2269A3680CBF25EAB9
:1092D000E57500259342C4BF9B1AED184FF00009B5
:1092E0001A344D4509D00123224639463046C0473D
:1092F0000130D5D009F10109F3E70020BDE8F0877E
:109300002DE9F04317460A7E85B06E2A9846064638
:109310000C460C9B01F1430E00F0AE8011D8632A7D
:1093200022D009D8002A00F0BB80582A40F0CA8019
:1093300081F84520834955E0642A1ED0692A1CD053
:10934000C0E0732A00F0B08009D86F2A2ED0702AAE
:1093500040F0B8800A6842F020020A603EE0752AB8
:1093600024D0782A3AD0ADE01A6801F14205111DE7
:109370001960136884F84230A8E021681A6811F077
:10938000800F02D0111D196008E011F0400F02F1AA
:109390000401196002D0B2F9003000E01368002B1C
:1093A0003CDA2D225B4284F8432037E021681A68BA
:1093B00011F0800F02D0111D196007E011F0400F6D
:1093C00002F10401196001D0138800E01368227EC5
:1093D0005C496F2A14BF0A2208221BE078225A49EE
:1093E00084F845202268186812F0800F00F1040507
:1093F0001D6003D1550601D5038800E00368D0073E
:1094000044BF42F0200222601BB9226822F02002F1
:1094100022601022002084F8430001E049490A221A
:109420006568A560002D08DB206820F0040020603E
:109430002BB9002D7DD175460CE0002B79D07546F7
:10944000B3FBF2F002FB1033CB5C05F8013D0346A1
:109450000028F5D1082A0BD12368DA0708D523693B
:1094600062689A42DEBF302305F8013C05F1FF3502
:10947000C5EB0E0323612EE008681A68496910F0F5
:10948000800F03D0101D1860136808E010F0400F23
:1094900002F104001860136801D0198000E019601F
:1094A00000232361754616E01A68111D19601568BE
:1094B00062680021284600F04BF808B1401B60604C
:1094C000636804E004F1420584F84220012323612B
:1094D000002384F84330CDF800803B4603AA2146A0
:1094E0003046FFF797FE013002D14FF0FF3026E003
:1094F00023692A4639463046C0470130F5D02368F3
:109500009B0710D5002504F1190907E001234A46FD
:1095100039463046C0470130E7D00135E368039A49
:109520009B1A9D42F2DBE068039B9842B8BF184645
:1095300005E00B7884F8423004F142058AE705B073
:10954000BDE8F083899900089A990008000000009E
:1095500001F0FF01102A2BDB10F0070F08D010F8E4
:10956000013B013A8B422DD010F0070F42B3F6D1E8
:10957000F0B441EA012141EA014122F007047FF001
:1095800000070023F0E80256083C85EA010586EA58
:10959000010685FA47F5A3FA87F586FA47F6A5FA94
:1095A00087F68EB9EED1F0BC01F0FF0102F00702A0
:1095B00032B110F8013B013A83EA010313B1F8D14B
:1095C0000020704701387047002D06BF354603382C
:1095D000073815F0010F07D1013015F4807F02BF65
:1095E000013015F4C03F0130F0BC0138704700BFB6
:1095F00010B5431E0A44914204D011F8014B03F800
:10960000014FF8E710BD884210B501EB020301D805
:10961000421E0BE09842FBD28118D21AD34204D0EA
:1096200013F8014D01F8014DF8E710BD994204D03F
:1096300011F8014B02F8014FF8E710BD38B50546A7
:10964000002946D051F8043C0C1F002BB8BFE41889
:1096500000F0D6F81F4A1368114613B9636014600E
:1096600032E0A3420ED92268A018834204BF1868D2
:109670005B68636004BF121822600C6024E0A242A1
:1096800003D813465A68002AF9D118681918A1425C
:109690000BD12168014458188242196014D1106816
:1096A00052685A60014419600EE002D90C232B6005
:1096B0000AE021686018824204BF10685268626044
:1096C00004BF091821605C602846BDE8384000F0FE
:1096D00098B838BD1001002070B5CD1C25F00305E9
:1096E00008350C2D38BF0C25002D064601DBA9429C
:1096F00002D90C23336046E000F082F8234B1C684B
:109700001A462146A1B10B685B1B0ED40B2B03D963
:109710000B60CC18CD501EE08C420DBF63684B68C7
:109720006360136018BF0C4615E00C464968E9E712
:10973000174C23681BB9304600F052F820602946C8
:10974000304600F04DF8431C18D0C41C24F003042C
:10975000A0420DD12560304600F053F804F10B0013
:10976000231D20F00700C31A0ED05A42E25070BDEC
:10977000211A304600F034F80130EBD10C2333606D
:10978000304600F03EF8002070BD00BF1001002000
:109790000C010020F8B5074615460E4621B91146C2
:1097A000BDE8F840FFF798BF1AB9FFF747FF284612
:1097B000F8BD00F027F885420ED929463846FFF754
:1097C0008BFF044650B131462A46FFF711FF314660
:1097D0003846FFF733FF01E03046F8BD2046F8BDBC
:1097E00038B5064C0023054608462360FEF71AFEEE
:1097F000431C02D1236803B12B6038BD1401002043
:109800007047704751F8040C0028BEBF091851F882
:10981000043CC01804387047537461636B2066724F
:10982000616D653A0A000000205230203D2020255D
:109830003038580A00000000205231203D202025F9
:109840003038580A00000000205232203D202025E8
:109850003038580A00000000205233203D202025D7
:109860003038580A0000000020523132203D2025B7
:109870003038580A00000000204C52203D2020259E
:109880003038580A00000000205043203D20202599
:109890003038580A0000000020505352203D202547
:1098A0003038580A000000004653522F4641523AC1
:1098B0000A0000002043465352203D202025303826
:1098C000580A00002048465352203D2020253038B9
:1098D000580A00002044465352203D2020253038AD
:1098E000580A00002041465352203D2020253038A0
:1098F000580A0000204D4D464152203D2025303869
:10990000580A00002042464152203D202025303890
:10991000580A00004D6973630A000000204C522F62
:109920004558435F52455455524E3D2025303858D6
:109930000A0000005B486172644661756C745D0AE0
:10994000000000005B4275734661756C745D0A002F
:109950005B55736167654661756C745D0A00000054
:1099600000000000000000000102030406070809CF
:1099700003030D0200034000232D302B2000686CF0
:109980004C00656667454647003031323334353622
:10999000373839414243444546003031323334355B
:0B99A000363738396162636465660089
:1099AC007856341280000020000000000024F400DF
:1099BC00000000000000000000000000000000009B
:1099CC00000000000000000000000000000000008B
:1099DC00000000000000000000000000000000007B
:1099EC00000000000000000000000000000000006B
:1099FC00000000000000000000000000000000005B
:109A0C00000000000000000000000000000000004A
:089A1C0010000020325476987E
:0400000508008195D9
:00000001FF
